{
  "contractName": "SolnSquareVerifier",
  "abi": [
    {
      "anonymous": false,
      "inputs": [
        {
          "indexed": true,
          "internalType": "address",
          "name": "owner",
          "type": "address"
        },
        {
          "indexed": true,
          "internalType": "address",
          "name": "approved",
          "type": "address"
        },
        {
          "indexed": true,
          "internalType": "uint256",
          "name": "tokenId",
          "type": "uint256"
        }
      ],
      "name": "Approval",
      "type": "event"
    },
    {
      "anonymous": false,
      "inputs": [
        {
          "indexed": true,
          "internalType": "address",
          "name": "owner",
          "type": "address"
        },
        {
          "indexed": true,
          "internalType": "address",
          "name": "operator",
          "type": "address"
        },
        {
          "indexed": false,
          "internalType": "bool",
          "name": "approved",
          "type": "bool"
        }
      ],
      "name": "ApprovalForAll",
      "type": "event"
    },
    {
      "anonymous": false,
      "inputs": [
        {
          "indexed": true,
          "internalType": "address",
          "name": "from",
          "type": "address"
        },
        {
          "indexed": true,
          "internalType": "address",
          "name": "to",
          "type": "address"
        },
        {
          "indexed": true,
          "internalType": "uint256",
          "name": "tokenId",
          "type": "uint256"
        }
      ],
      "name": "Transfer",
      "type": "event"
    },
    {
      "anonymous": false,
      "inputs": [
        {
          "indexed": false,
          "internalType": "bytes32",
          "name": "index",
          "type": "bytes32"
        },
        {
          "indexed": false,
          "internalType": "address",
          "name": "solAddress",
          "type": "address"
        },
        {
          "indexed": false,
          "internalType": "uint256",
          "name": "tokenId",
          "type": "uint256"
        }
      ],
      "name": "newSolution",
      "type": "event"
    },
    {
      "anonymous": false,
      "inputs": [
        {
          "indexed": false,
          "internalType": "address",
          "name": "oldOwner",
          "type": "address"
        },
        {
          "indexed": false,
          "internalType": "address",
          "name": "newOwner",
          "type": "address"
        }
      ],
      "name": "ownerTransference",
      "type": "event"
    },
    {
      "anonymous": false,
      "inputs": [
        {
          "indexed": false,
          "internalType": "address",
          "name": "emitter",
          "type": "address"
        }
      ],
      "name": "pauseEvent",
      "type": "event"
    },
    {
      "anonymous": false,
      "inputs": [
        {
          "indexed": false,
          "internalType": "address",
          "name": "emitter",
          "type": "address"
        }
      ],
      "name": "unpauseEvent",
      "type": "event"
    },
    {
      "constant": false,
      "inputs": [
        {
          "internalType": "bytes32",
          "name": "_myid",
          "type": "bytes32"
        },
        {
          "internalType": "string",
          "name": "_result",
          "type": "string"
        }
      ],
      "name": "__callback",
      "outputs": [],
      "payable": false,
      "stateMutability": "nonpayable",
      "type": "function"
    },
    {
      "constant": false,
      "inputs": [
        {
          "internalType": "bytes32",
          "name": "_myid",
          "type": "bytes32"
        },
        {
          "internalType": "string",
          "name": "_result",
          "type": "string"
        },
        {
          "internalType": "bytes",
          "name": "_proof",
          "type": "bytes"
        }
      ],
      "name": "__callback",
      "outputs": [],
      "payable": false,
      "stateMutability": "nonpayable",
      "type": "function"
    },
    {
      "constant": false,
      "inputs": [
        {
          "internalType": "address",
          "name": "to",
          "type": "address"
        },
        {
          "internalType": "uint256",
          "name": "tokenId",
          "type": "uint256"
        }
      ],
      "name": "approve",
      "outputs": [],
      "payable": false,
      "stateMutability": "nonpayable",
      "type": "function"
    },
    {
      "constant": true,
      "inputs": [
        {
          "internalType": "address",
          "name": "owner",
          "type": "address"
        }
      ],
      "name": "balanceOf",
      "outputs": [
        {
          "internalType": "uint256",
          "name": "",
          "type": "uint256"
        }
      ],
      "payable": false,
      "stateMutability": "view",
      "type": "function"
    },
    {
      "constant": true,
      "inputs": [
        {
          "internalType": "uint256",
          "name": "tokenId",
          "type": "uint256"
        }
      ],
      "name": "getApproved",
      "outputs": [
        {
          "internalType": "address",
          "name": "",
          "type": "address"
        }
      ],
      "payable": false,
      "stateMutability": "view",
      "type": "function"
    },
    {
      "constant": true,
      "inputs": [],
      "name": "getOwner",
      "outputs": [
        {
          "internalType": "address",
          "name": "",
          "type": "address"
        }
      ],
      "payable": false,
      "stateMutability": "view",
      "type": "function"
    },
    {
      "constant": true,
      "inputs": [
        {
          "internalType": "address",
          "name": "owner",
          "type": "address"
        },
        {
          "internalType": "address",
          "name": "operator",
          "type": "address"
        }
      ],
      "name": "isApprovedForAll",
      "outputs": [
        {
          "internalType": "bool",
          "name": "",
          "type": "bool"
        }
      ],
      "payable": false,
      "stateMutability": "view",
      "type": "function"
    },
    {
      "constant": false,
      "inputs": [
        {
          "internalType": "address",
          "name": "to",
          "type": "address"
        },
        {
          "internalType": "uint256",
          "name": "tokenId",
          "type": "uint256"
        }
      ],
      "name": "mint",
      "outputs": [
        {
          "internalType": "bool",
          "name": "",
          "type": "bool"
        }
      ],
      "payable": false,
      "stateMutability": "nonpayable",
      "type": "function"
    },
    {
      "constant": true,
      "inputs": [
        {
          "internalType": "uint256",
          "name": "tokenId",
          "type": "uint256"
        }
      ],
      "name": "ownerOf",
      "outputs": [
        {
          "internalType": "address",
          "name": "",
          "type": "address"
        }
      ],
      "payable": false,
      "stateMutability": "view",
      "type": "function"
    },
    {
      "constant": false,
      "inputs": [
        {
          "internalType": "bool",
          "name": "pauseState",
          "type": "bool"
        }
      ],
      "name": "pause",
      "outputs": [],
      "payable": false,
      "stateMutability": "nonpayable",
      "type": "function"
    },
    {
      "constant": false,
      "inputs": [
        {
          "internalType": "address",
          "name": "from",
          "type": "address"
        },
        {
          "internalType": "address",
          "name": "to",
          "type": "address"
        },
        {
          "internalType": "uint256",
          "name": "tokenId",
          "type": "uint256"
        }
      ],
      "name": "safeTransferFrom",
      "outputs": [],
      "payable": false,
      "stateMutability": "nonpayable",
      "type": "function"
    },
    {
      "constant": false,
      "inputs": [
        {
          "internalType": "address",
          "name": "from",
          "type": "address"
        },
        {
          "internalType": "address",
          "name": "to",
          "type": "address"
        },
        {
          "internalType": "uint256",
          "name": "tokenId",
          "type": "uint256"
        },
        {
          "internalType": "bytes",
          "name": "_data",
          "type": "bytes"
        }
      ],
      "name": "safeTransferFrom",
      "outputs": [],
      "payable": false,
      "stateMutability": "nonpayable",
      "type": "function"
    },
    {
      "constant": false,
      "inputs": [
        {
          "internalType": "address",
          "name": "to",
          "type": "address"
        },
        {
          "internalType": "bool",
          "name": "approved",
          "type": "bool"
        }
      ],
      "name": "setApprovalForAll",
      "outputs": [],
      "payable": false,
      "stateMutability": "nonpayable",
      "type": "function"
    },
    {
      "constant": true,
      "inputs": [
        {
          "internalType": "bytes4",
          "name": "interfaceId",
          "type": "bytes4"
        }
      ],
      "name": "supportsInterface",
      "outputs": [
        {
          "internalType": "bool",
          "name": "",
          "type": "bool"
        }
      ],
      "payable": false,
      "stateMutability": "view",
      "type": "function"
    },
    {
      "constant": true,
      "inputs": [
        {
          "internalType": "uint256",
          "name": "index",
          "type": "uint256"
        }
      ],
      "name": "tokenByIndex",
      "outputs": [
        {
          "internalType": "uint256",
          "name": "",
          "type": "uint256"
        }
      ],
      "payable": false,
      "stateMutability": "view",
      "type": "function"
    },
    {
      "constant": true,
      "inputs": [
        {
          "internalType": "address",
          "name": "owner",
          "type": "address"
        },
        {
          "internalType": "uint256",
          "name": "index",
          "type": "uint256"
        }
      ],
      "name": "tokenOfOwnerByIndex",
      "outputs": [
        {
          "internalType": "uint256",
          "name": "",
          "type": "uint256"
        }
      ],
      "payable": false,
      "stateMutability": "view",
      "type": "function"
    },
    {
      "constant": true,
      "inputs": [
        {
          "internalType": "uint256",
          "name": "tokenId",
          "type": "uint256"
        }
      ],
      "name": "tokenURI",
      "outputs": [
        {
          "internalType": "string",
          "name": "",
          "type": "string"
        }
      ],
      "payable": false,
      "stateMutability": "view",
      "type": "function"
    },
    {
      "constant": true,
      "inputs": [],
      "name": "totalSupply",
      "outputs": [
        {
          "internalType": "uint256",
          "name": "",
          "type": "uint256"
        }
      ],
      "payable": false,
      "stateMutability": "view",
      "type": "function"
    },
    {
      "constant": false,
      "inputs": [
        {
          "internalType": "address",
          "name": "from",
          "type": "address"
        },
        {
          "internalType": "address",
          "name": "to",
          "type": "address"
        },
        {
          "internalType": "uint256",
          "name": "tokenId",
          "type": "uint256"
        }
      ],
      "name": "transferFrom",
      "outputs": [],
      "payable": false,
      "stateMutability": "nonpayable",
      "type": "function"
    },
    {
      "constant": false,
      "inputs": [
        {
          "internalType": "address",
          "name": "newOwner",
          "type": "address"
        }
      ],
      "name": "transferOwnership",
      "outputs": [],
      "payable": false,
      "stateMutability": "nonpayable",
      "type": "function"
    },
    {
      "constant": true,
      "inputs": [
        {
          "internalType": "uint256[2]",
          "name": "a",
          "type": "uint256[2]"
        },
        {
          "internalType": "uint256[2][2]",
          "name": "b",
          "type": "uint256[2][2]"
        },
        {
          "internalType": "uint256[2]",
          "name": "c",
          "type": "uint256[2]"
        },
        {
          "internalType": "uint256[2]",
          "name": "input",
          "type": "uint256[2]"
        }
      ],
      "name": "verifyTx",
      "outputs": [
        {
          "internalType": "bool",
          "name": "r",
          "type": "bool"
        }
      ],
      "payable": false,
      "stateMutability": "view",
      "type": "function"
    },
    {
      "constant": false,
      "inputs": [
        {
          "internalType": "address",
          "name": "solAddress",
          "type": "address"
        },
        {
          "internalType": "uint256",
          "name": "tokenId",
          "type": "uint256"
        },
        {
          "internalType": "uint256[2]",
          "name": "a",
          "type": "uint256[2]"
        },
        {
          "internalType": "uint256[2][2]",
          "name": "b",
          "type": "uint256[2][2]"
        },
        {
          "internalType": "uint256[2]",
          "name": "c",
          "type": "uint256[2]"
        },
        {
          "internalType": "uint256[2]",
          "name": "input",
          "type": "uint256[2]"
        }
      ],
      "name": "addSol",
      "outputs": [],
      "payable": false,
      "stateMutability": "nonpayable",
      "type": "function"
    },
    {
      "constant": false,
      "inputs": [
        {
          "internalType": "address",
          "name": "to",
          "type": "address"
        },
        {
          "internalType": "uint256",
          "name": "tokenId",
          "type": "uint256"
        }
      ],
      "name": "solMint",
      "outputs": [],
      "payable": false,
      "stateMutability": "nonpayable",
      "type": "function"
    }
  ],
  "bytecode": "0x60806040526040518060400160405280601181526020017f54686520436f6f6c65737420546f6b656e0000000000000000000000000000008152506040518060400160405280600381526020017f54435400000000000000000000000000000000000000000000000000000000008152506040518060600160405280603f81526020016200437e603f9139336000806101000a81548173ffffffffffffffffffffffffffffffffffffffff021916908373ffffffffffffffffffffffffffffffffffffffff16021790555060008060146101000a81548160ff021916908315150217905550620000fc6301ffc9a760e01b6200019860201b60201c565b620001146380ac58cd60e01b6200019860201b60201c565b6200012c63780e9d6360e01b6200019860201b60201c565b82600f90805190602001906200014492919062000238565b5081601090805190602001906200015d92919062000238565b5080601190805190602001906200017692919062000238565b506200018f635b5e139f60e01b6200019860201b60201c565b505050620002e7565b63ffffffff60e01b817bffffffffffffffffffffffffffffffffffffffffffffffffffffffff19161415620001cc57600080fd5b6001806000837bffffffffffffffffffffffffffffffffffffffffffffffffffffffff19167bffffffffffffffffffffffffffffffffffffffffffffffffffffffff1916815260200190815260200160002060006101000a81548160ff02191690831515021790555050565b828054600181600116156101000203166002900490600052602060002090601f016020900481019282601f106200027b57805160ff1916838001178555620002ac565b82800160010185558215620002ac579182015b82811115620002ab5782518255916020019190600101906200028e565b5b509050620002bb9190620002bf565b5090565b620002e491905b80821115620002e0576000816000905550600101620002c6565b5090565b90565b61408780620002f76000396000f3fe608060405234801561001057600080fd5b506004361061014d5760003560e01c80634f6ccce7116100c3578063a22cb4651161007c578063a22cb46514610adc578063ad4a242414610b2c578063b88d4fde14610b7a578063c87b56dd14610c7f578063e985e9c514610d26578063f2fde38b14610da25761014d565b80634f6ccce714610686578063621e9ec0146106c85780636352211e1461084157806370a08231146108af578063863e560e14610907578063893d20e814610a925761014d565b806323b872dd1161011557806323b872dd146102c157806327dc297e1461032f5780632f745c59146103f457806338bbfa501461045657806340c10f19146105b257806342842e0e146106185761014d565b806301ffc9a71461015257806302329a29146101b7578063081812fc146101e7578063095ea7b31461025557806318160ddd146102a3575b600080fd5b61019d6004803603602081101561016857600080fd5b8101908080357bffffffffffffffffffffffffffffffffffffffffffffffffffffffff19169060200190929190505050610de6565b604051808215151515815260200191505060405180910390f35b6101e5600480360360208110156101cd57600080fd5b81019080803515159060200190929190505050610e4e565b005b610213600480360360208110156101fd57600080fd5b8101908080359060200190929190505050610ff1565b604051808273ffffffffffffffffffffffffffffffffffffffff1673ffffffffffffffffffffffffffffffffffffffff16815260200191505060405180910390f35b6102a16004803603604081101561026b57600080fd5b81019080803573ffffffffffffffffffffffffffffffffffffffff1690602001909291908035906020019092919050505061102e565b005b6102ab6112c5565b6040518082815260200191505060405180910390f35b61032d600480360360608110156102d757600080fd5b81019080803573ffffffffffffffffffffffffffffffffffffffff169060200190929190803573ffffffffffffffffffffffffffffffffffffffff169060200190929190803590602001909291905050506112d2565b005b6103f26004803603604081101561034557600080fd5b81019080803590602001909291908035906020019064010000000081111561036c57600080fd5b82018360208201111561037e57600080fd5b803590602001918460018302840111640100000000831117156103a057600080fd5b91908080601f016020809104026020016040519081016040528093929190818152602001838380828437600081840152601f19601f8201169050808301925050505050505091929192905050506112f5565b005b6104406004803603604081101561040a57600080fd5b81019080803573ffffffffffffffffffffffffffffffffffffffff16906020019092919080359060200190929190505050611338565b6040518082815260200191505060405180910390f35b6105b06004803603606081101561046c57600080fd5b81019080803590602001909291908035906020019064010000000081111561049357600080fd5b8201836020820111156104a557600080fd5b803590602001918460018302840111640100000000831117156104c757600080fd5b91908080601f016020809104026020016040519081016040528093929190818152602001838380828437600081840152601f19601f8201169050808301925050505050505091929192908035906020019064010000000081111561052a57600080fd5b82018360208201111561053c57600080fd5b8035906020019184600183028401116401000000008311171561055e57600080fd5b91908080601f016020809104026020016040519081016040528093929190818152602001838380828437600081840152601f19601f8201169050808301925050505050505091929192905050506113ab565b005b6105fe600480360360408110156105c857600080fd5b81019080803573ffffffffffffffffffffffffffffffffffffffff169060200190929190803590602001909291905050506113b0565b604051808215151515815260200191505060405180910390f35b6106846004803603606081101561062e57600080fd5b81019080803573ffffffffffffffffffffffffffffffffffffffff169060200190929190803573ffffffffffffffffffffffffffffffffffffffff16906020019092919080359060200190929190505050611474565b005b6106b26004803603602081101561069c57600080fd5b8101908080359060200190929190505050611494565b6040518082815260200191505060405180910390f35b61082760048036036101408110156106df57600080fd5b8101908080604001906002806020026040519081016040528092919082600260200280828437600081840152601f19601f82011690508083019250505050505091929192908060800190600280602002604051908101604052809291906000905b82821015610794578382604002016002806020026040519081016040528092919082600260200280828437600081840152601f19601f82011690508083019250505050505081526020019060010190610740565b50505050919291929080604001906002806020026040519081016040528092919082600260200280828437600081840152601f19601f820116905080830192505050505050919291929080604001906002806020026040519081016040528092919082600260200280828437600081840152601f19601f82011690508083019250505050505091929192905050506114c8565b604051808215151515815260200191505060405180910390f35b61086d6004803603602081101561085757600080fd5b81019080803590602001909291905050506116c6565b604051808273ffffffffffffffffffffffffffffffffffffffff1673ffffffffffffffffffffffffffffffffffffffff16815260200191505060405180910390f35b6108f1600480360360208110156108c557600080fd5b81019080803573ffffffffffffffffffffffffffffffffffffffff169060200190929190505050611703565b6040518082815260200191505060405180910390f35b610a90600480360361018081101561091e57600080fd5b81019080803573ffffffffffffffffffffffffffffffffffffffff1690602001909291908035906020019092919080604001906002806020026040519081016040528092919082600260200280828437600081840152601f19601f82011690508083019250505050505091929192908060800190600280602002604051908101604052809291906000905b828210156109fd578382604002016002806020026040519081016040528092919082600260200280828437600081840152601f19601f820116905080830192505050505050815260200190600101906109a9565b50505050919291929080604001906002806020026040519081016040528092919082600260200280828437600081840152601f19601f820116905080830192505050505050919291929080604001906002806020026040519081016040528092919082600260200280828437600081840152601f19601f8201169050808301925050505050509192919290505050611753565b005b610a9a611ac3565b604051808273ffffffffffffffffffffffffffffffffffffffff1673ffffffffffffffffffffffffffffffffffffffff16815260200191505060405180910390f35b610b2a60048036036040811015610af257600080fd5b81019080803573ffffffffffffffffffffffffffffffffffffffff169060200190929190803515159060200190929190505050611aec565b005b610b7860048036036040811015610b4257600080fd5b81019080803573ffffffffffffffffffffffffffffffffffffffff16906020019092919080359060200190929190505050611c26565b005b610c7d60048036036080811015610b9057600080fd5b81019080803573ffffffffffffffffffffffffffffffffffffffff169060200190929190803573ffffffffffffffffffffffffffffffffffffffff1690602001909291908035906020019092919080359060200190640100000000811115610bf757600080fd5b820183602082011115610c0957600080fd5b80359060200191846001830284011164010000000083111715610c2b57600080fd5b91908080601f016020809104026020016040519081016040528093929190818152602001838380828437600081840152601f19601f820116905080830192505050505050509192919290505050611cc1565b005b610cab60048036036020811015610c9557600080fd5b8101908080359060200190929190505050611ce7565b6040518080602001828103825283818151815260200191508051906020019080838360005b83811015610ceb578082015181840152602081019050610cd0565b50505050905090810190601f168015610d185780820380516001836020036101000a031916815260200191505b509250505060405180910390f35b610d8860048036036040811015610d3c57600080fd5b81019080803573ffffffffffffffffffffffffffffffffffffffff169060200190929190803573ffffffffffffffffffffffffffffffffffffffff169060200190929190505050611dae565b604051808215151515815260200191505060405180910390f35b610de460048036036020811015610db857600080fd5b81019080803573ffffffffffffffffffffffffffffffffffffffff169060200190929190505050611e42565b005b600060016000837bffffffffffffffffffffffffffffffffffffffffffffffffffffffff19167bffffffffffffffffffffffffffffffffffffffffffffffffffffffff1916815260200190815260200160002060009054906101000a900460ff169050919050565b6000809054906101000a900473ffffffffffffffffffffffffffffffffffffffff1673ffffffffffffffffffffffffffffffffffffffff163373ffffffffffffffffffffffffffffffffffffffff1614610ef3576040517f08c379a000000000000000000000000000000000000000000000000000000000815260040180806020018281038252603d815260200180613ff3603d913960400191505060405180910390fd5b80600060146101000a81548160ff021916908315150217905550600060149054906101000a900460ff1615610f8a577f3972dd2b7e2497f117a1466d95950e53e1185d6a905c8007a94caa115ccf680433604051808273ffffffffffffffffffffffffffffffffffffffff1673ffffffffffffffffffffffffffffffffffffffff16815260200191505060405180910390a1610fee565b7f446f7ddd9a53c275b91e730638e810b20623089fdd9736ccc22ec7963e6e569633604051808273ffffffffffffffffffffffffffffffffffffffff1673ffffffffffffffffffffffffffffffffffffffff16815260200191505060405180910390a15b50565b60006003600083815260200190815260200160002060009054906101000a900473ffffffffffffffffffffffffffffffffffffffff169050919050565b8173ffffffffffffffffffffffffffffffffffffffff166002600083815260200190815260200160002060009054906101000a900473ffffffffffffffffffffffffffffffffffffffff1673ffffffffffffffffffffffffffffffffffffffff1614156110e6576040517f08c379a0000000000000000000000000000000000000000000000000000000008152600401808060200182810382526023815260200180613fd06023913960400191505060405180910390fd5b3373ffffffffffffffffffffffffffffffffffffffff166002600083815260200190815260200160002060009054906101000a900473ffffffffffffffffffffffffffffffffffffffff1673ffffffffffffffffffffffffffffffffffffffff16148061118c575061118b6002600083815260200190815260200160002060009054906101000a900473ffffffffffffffffffffffffffffffffffffffff1683611dae565b5b6111e1576040517f08c379a0000000000000000000000000000000000000000000000000000000008152600401808060200182810382526026815260200180613f886026913960400191505060405180910390fd5b816003600083815260200190815260200160002060006101000a81548173ffffffffffffffffffffffffffffffffffffffff021916908373ffffffffffffffffffffffffffffffffffffffff160217905550808273ffffffffffffffffffffffffffffffffffffffff166002600084815260200190815260200160002060009054906101000a900473ffffffffffffffffffffffffffffffffffffffff1673ffffffffffffffffffffffffffffffffffffffff167f8c5be1e5ebec7d5bd14f71427d1e84f3dd0314c0f7b2291e5b200ac8c7c3b92560405160405180910390a45050565b6000600880549050905090565b6112dc338261208b565b6112e557600080fd5b6112f0838383612120565b505050565b611334828260006040519080825280601f01601f19166020018201604052801561132e5781602001600182028038833980820191505090505b506113ab565b5050565b600061134383611703565b821061134e57600080fd5b600660008473ffffffffffffffffffffffffffffffffffffffff1673ffffffffffffffffffffffffffffffffffffffff168152602001908152602001600020828154811061139857fe5b9060005260206000200154905092915050565b505050565b60008060009054906101000a900473ffffffffffffffffffffffffffffffffffffffff1673ffffffffffffffffffffffffffffffffffffffff163373ffffffffffffffffffffffffffffffffffffffff1614611457576040517f08c379a000000000000000000000000000000000000000000000000000000000815260040180806020018281038252603d815260200180613ff3603d913960400191505060405180910390fd5b6114618383612144565b61146a82612165565b6001905092915050565b61148f83838360405180602001604052806000815250611cc1565b505050565b600061149e6112c5565b82106114a957600080fd5b600882815481106114b657fe5b90600052602060002001549050919050565b60006114d2613d28565b60405180606001604052806040518060400160405280896000600281106114f557fe5b602002015181526020018960016002811061150c57fe5b60200201518152508152602001604051806040016040528060405180604001604052808a60006002811061153c57fe5b602002015160006002811061154d57fe5b602002015181526020018a60006002811061156457fe5b602002015160016002811061157557fe5b6020020151815250815260200160405180604001604052808a60016002811061159a57fe5b60200201516000600281106115ab57fe5b602002015181526020018a6001600281106115c257fe5b60200201516001600281106115d357fe5b602002015181525081525081526020016040518060400160405280876000600281106115fb57fe5b602002015181526020018760016002811061161257fe5b60200201518152508152509050606060026040519080825280602002602001820160405280156116515781602001602082028038833980820191505090505b50905060008090505b60028110156116995784816002811061166f57fe5b602002015182828151811061168057fe5b602002602001018181525050808060010191505061165a565b5060006116a682846122b6565b14156116b7576001925050506116be565b6000925050505b949350505050565b60006002600083815260200190815260200160002060009054906101000a900473ffffffffffffffffffffffffffffffffffffffff169050919050565b600061174c600460008473ffffffffffffffffffffffffffffffffffffffff1673ffffffffffffffffffffffffffffffffffffffff168152602001908152602001600020612428565b9050919050565b6000848484846040516020018085600260200280838360005b8381101561178757808201518184015260208101905061176c565b505050509050018460026000925b818410156117db5782846020020151600260200280838360005b838110156117ca5780820151818401526020810190506117af565b505050509050019260010192611795565b9250505083600260200280838360005b838110156118065780820151818401526020810190506117eb565b5050505090500182600260200280838360005b83811015611834578082015181840152602081019050611819565b505050509050019450505050506040516020818303038152906040528051906020012090506013600082815260200190815260200160002060010160149054906101000a900460ff16156118f0576040517f08c379a000000000000000000000000000000000000000000000000000000000815260040180806020018281038252601c8152602001807f5468697320736f6c7574696f6e20616c7265616479206578697374730000000081525060200191505060405180910390fd5b60006118fe868686866114c8565b905080611973576040517f08c379a00000000000000000000000000000000000000000000000000000000081526004018080602001828103825260128152602001807f50726f6f66206973206e6f742076616c6964000000000000000000000000000081525060200191505060405180910390fd5b60405180606001604052808381526020018973ffffffffffffffffffffffffffffffffffffffff16815260200160011515815250601360008481526020019081526020016000206000820151816000015560208201518160010160006101000a81548173ffffffffffffffffffffffffffffffffffffffff021916908373ffffffffffffffffffffffffffffffffffffffff16021790555060408201518160010160146101000a81548160ff0219169083151502179055509050508160146000898152602001908152602001600020819055507fa8348bf22f24dfdfbd206656d9911e021b39e58b4011b53045a11814d6b264a0828989604051808481526020018373ffffffffffffffffffffffffffffffffffffffff1673ffffffffffffffffffffffffffffffffffffffff168152602001828152602001935050505060405180910390a15050505050505050565b60008060009054906101000a900473ffffffffffffffffffffffffffffffffffffffff16905090565b3373ffffffffffffffffffffffffffffffffffffffff168273ffffffffffffffffffffffffffffffffffffffff161415611b2557600080fd5b80600560003373ffffffffffffffffffffffffffffffffffffffff1673ffffffffffffffffffffffffffffffffffffffff16815260200190815260200160002060008473ffffffffffffffffffffffffffffffffffffffff1673ffffffffffffffffffffffffffffffffffffffff16815260200190815260200160002060006101000a81548160ff0219169083151502179055508173ffffffffffffffffffffffffffffffffffffffff163373ffffffffffffffffffffffffffffffffffffffff167f17307eab39ab6107e8899845ad3d59bd9653f200f220920489ca2b5937696c3183604051808215151515815260200191505060405180910390a35050565b601360006014600084815260200190815260200160002054815260200190815260200160002060010160149054906101000a900460ff16611cb2576040517f08c379a00000000000000000000000000000000000000000000000000000000081526004018080602001828103825260238152602001806140306023913960400191505060405180910390fd5b611cbc82826113b0565b505050565b611ccc8484846112d2565b611cd884848484612436565b611ce157600080fd5b50505050565b6060611cf28261261f565b611cfb57600080fd5b601260008381526020019081526020016000208054600181600116156101000203166002900480601f016020809104026020016040519081016040528092919081815260200182805460018160011615610100020316600290048015611da25780601f10611d7757610100808354040283529160200191611da2565b820191906000526020600020905b815481529060010190602001808311611d8557829003601f168201915b50505050509050919050565b6000600560008473ffffffffffffffffffffffffffffffffffffffff1673ffffffffffffffffffffffffffffffffffffffff16815260200190815260200160002060008373ffffffffffffffffffffffffffffffffffffffff1673ffffffffffffffffffffffffffffffffffffffff16815260200190815260200160002060009054906101000a900460ff16905092915050565b6000809054906101000a900473ffffffffffffffffffffffffffffffffffffffff1673ffffffffffffffffffffffffffffffffffffffff163373ffffffffffffffffffffffffffffffffffffffff1614611ee7576040517f08c379a000000000000000000000000000000000000000000000000000000000815260040180806020018281038252603d815260200180613ff3603d913960400191505060405180910390fd5b600073ffffffffffffffffffffffffffffffffffffffff168173ffffffffffffffffffffffffffffffffffffffff161415611f8a576040517f08c379a000000000000000000000000000000000000000000000000000000000815260040180806020018281038252601a8152602001807f506c656173652075736520612076616c6964206164647265737300000000000081525060200191505060405180910390fd5b60008060009054906101000a900473ffffffffffffffffffffffffffffffffffffffff169050816000806101000a81548173ffffffffffffffffffffffffffffffffffffffff021916908373ffffffffffffffffffffffffffffffffffffffff1602179055507fb54f69a22c2850907e06f929b4b7654011d5f09ec1d99bfe9be09589c7feed518183604051808373ffffffffffffffffffffffffffffffffffffffff1673ffffffffffffffffffffffffffffffffffffffff1681526020018273ffffffffffffffffffffffffffffffffffffffff1673ffffffffffffffffffffffffffffffffffffffff1681526020019250505060405180910390a15050565b600080612097836116c6565b90508073ffffffffffffffffffffffffffffffffffffffff168473ffffffffffffffffffffffffffffffffffffffff16148061210657508373ffffffffffffffffffffffffffffffffffffffff166120ee84610ff1565b73ffffffffffffffffffffffffffffffffffffffff16145b8061211757506121168185611dae565b5b91505092915050565b61212b838383612691565b612135838261297e565b61213f8282612b1c565b505050565b61214e8282612be3565b6121588282612b1c565b61216181612d3a565b5050565b61216e8161261f565b6121e0576040517f08c379a000000000000000000000000000000000000000000000000000000000815260040180806020018281038252601e8152602001807f5468697320746f6b656e20686173206e6f74206265656e206d696e746564000081525060200191505060405180910390fd5b61228c60118054600181600116156101000203166002900480601f0160208091040260200160405190810160405280929190818152602001828054600181600116156101000203166002900480156122795780601f1061224e57610100808354040283529160200191612279565b820191906000526020600020905b81548152906001019060200180831161225c57829003601f168201915b505050505061228783612d86565b612eb3565b6012600083815260200190815260200160002090805190602001906122b2929190613d5b565b5050565b6000807f30644e72e131a029b85045b68181585d2833e84879b9709143e1f593f000000190506122e4613ddb565b6122ec612ef7565b905080608001515160018651011461230357600080fd5b61230b613e22565b6040518060400160405280600081526020016000815250905060008090505b86518110156123a1578387828151811061234057fe5b60200260200101511061235257600080fd5b6123928261238d8560800151600185018151811061236c57fe5b60200260200101518a858151811061238057fe5b6020026020010151613344565b6133d6565b9150808060010191505061232a565b506123c48183608001516000815181106123b757fe5b60200260200101516133d6565b905061240a856000015186602001516123dc84613487565b85604001516123ee8a60400151613487565b87606001516124008960000151613487565b8960200151613521565b61241a5760019350505050612422565b600093505050505b92915050565b600081600001549050919050565b60006124578473ffffffffffffffffffffffffffffffffffffffff16613685565b6124645760019050612617565b60008473ffffffffffffffffffffffffffffffffffffffff1663150b7a02338887876040518563ffffffff1660e01b8152600401808573ffffffffffffffffffffffffffffffffffffffff1673ffffffffffffffffffffffffffffffffffffffff1681526020018473ffffffffffffffffffffffffffffffffffffffff1673ffffffffffffffffffffffffffffffffffffffff16815260200183815260200180602001828103825283818151815260200191508051906020019080838360005b8381101561253f578082015181840152602081019050612524565b50505050905090810190601f16801561256c5780820380516001836020036101000a031916815260200191505b5095505050505050602060405180830381600087803b15801561258e57600080fd5b505af11580156125a2573d6000803e3d6000fd5b505050506040513d60208110156125b857600080fd5b8101908080519060200190929190505050905063150b7a0260e01b7bffffffffffffffffffffffffffffffffffffffffffffffffffffffff1916817bffffffffffffffffffffffffffffffffffffffffffffffffffffffff1916149150505b949350505050565b6000806002600084815260200190815260200160002060009054906101000a900473ffffffffffffffffffffffffffffffffffffffff169050600073ffffffffffffffffffffffffffffffffffffffff168173ffffffffffffffffffffffffffffffffffffffff161415915050919050565b8273ffffffffffffffffffffffffffffffffffffffff166002600083815260200190815260200160002060009054906101000a900473ffffffffffffffffffffffffffffffffffffffff1673ffffffffffffffffffffffffffffffffffffffff1614612748576040517f08c379a0000000000000000000000000000000000000000000000000000000008152600401808060200182810382526032815260200180613f566032913960400191505060405180910390fd5b600073ffffffffffffffffffffffffffffffffffffffff168273ffffffffffffffffffffffffffffffffffffffff1614156127eb576040517f08c379a000000000000000000000000000000000000000000000000000000000815260040180806020018281038252601e8152602001807f506c656173652070726f7669646520612076616c69642061646472657373000081525060200191505060405180910390fd5b60006003600083815260200190815260200160002060006101000a81548173ffffffffffffffffffffffffffffffffffffffff021916908373ffffffffffffffffffffffffffffffffffffffff160217905550816002600083815260200190815260200160002060006101000a81548173ffffffffffffffffffffffffffffffffffffffff021916908373ffffffffffffffffffffffffffffffffffffffff1602179055506128d7600460008573ffffffffffffffffffffffffffffffffffffffff1673ffffffffffffffffffffffffffffffffffffffff1681526020019081526020016000206136d0565b61291e600460008473ffffffffffffffffffffffffffffffffffffffff1673ffffffffffffffffffffffffffffffffffffffff1681526020019081526020016000206136f3565b808273ffffffffffffffffffffffffffffffffffffffff168473ffffffffffffffffffffffffffffffffffffffff167fddf252ad1be2c89b69c2b068fc378daa952ba7f163c4a11628f55a4df523b3ef60405160405180910390a4505050565b60006129d66001600660008673ffffffffffffffffffffffffffffffffffffffff1673ffffffffffffffffffffffffffffffffffffffff1681526020019081526020016000208054905061370990919063ffffffff16565b9050600060076000848152602001908152602001600020549050818114612ac3576000600660008673ffffffffffffffffffffffffffffffffffffffff1673ffffffffffffffffffffffffffffffffffffffff1681526020019081526020016000208381548110612a4357fe5b9060005260206000200154905080600660008773ffffffffffffffffffffffffffffffffffffffff1673ffffffffffffffffffffffffffffffffffffffff1681526020019081526020016000208381548110612a9b57fe5b9060005260206000200181905550816007600083815260200190815260200160002081905550505b600660008573ffffffffffffffffffffffffffffffffffffffff1673ffffffffffffffffffffffffffffffffffffffff168152602001908152602001600020805480919060019003612b159190613e3c565b5050505050565b600660008373ffffffffffffffffffffffffffffffffffffffff1673ffffffffffffffffffffffffffffffffffffffff168152602001908152602001600020805490506007600083815260200190815260200160002081905550600660008373ffffffffffffffffffffffffffffffffffffffff1673ffffffffffffffffffffffffffffffffffffffff1681526020019081526020016000208190806001815401808255809150509060018203906000526020600020016000909192909190915055505050565b612bec8161261f565b15612c42576040517f08c379a0000000000000000000000000000000000000000000000000000000008152600401808060200182810382526022815260200180613fae6022913960400191505060405180910390fd5b816002600083815260200190815260200160002060006101000a81548173ffffffffffffffffffffffffffffffffffffffff021916908373ffffffffffffffffffffffffffffffffffffffff160217905550612cdb600460008473ffffffffffffffffffffffffffffffffffffffff1673ffffffffffffffffffffffffffffffffffffffff1681526020019081526020016000206136f3565b808273ffffffffffffffffffffffffffffffffffffffff163373ffffffffffffffffffffffffffffffffffffffff167fddf252ad1be2c89b69c2b068fc378daa952ba7f163c4a11628f55a4df523b3ef60405160405180910390a45050565b6008805490506009600083815260200190815260200160002081905550600881908060018154018082558091505090600182039060005260206000200160009091929091909150555050565b60606000821415612dce576040518060400160405280600181526020017f30000000000000000000000000000000000000000000000000000000000000008152509050612eae565b600082905060005b60008214612df8578080600101915050600a8281612df057fe5b049150612dd6565b6060816040519080825280601f01601f191660200182016040528015612e2d5781602001600182028038833980820191505090505b50905060006001830390505b60008614612ea657600a8681612e4b57fe5b0660300160f81b82828060019003935081518110612e6557fe5b60200101907effffffffffffffffffffffffffffffffffffffffffffffffffffffffffffff1916908160001a905350600a8681612e9e57fe5b049550612e39565b819450505050505b919050565b6060612eef8383604051806020016040528060008152506040518060200160405280600081525060405180602001604052806000815250613753565b905092915050565b612eff613ddb565b60405180604001604052807f1603a09dbacc2f6f3bac21f99ce40fd10bae12341f436ee54ff2f2c43f5ab8eb81526020017f224681030f757d9c1f78a058d7475f0aa359ca2f32b71c2b8c55679f29d9e9498152508160000181905250604051806040016040528060405180604001604052807f1db12b72a12c4422fe8bdf1ddced23b2b1a4acefc9c936efa147981a55adfb9981526020017f0376a05a46a3b52cf2df07f6865e4338294d9db42fad615f67803416ae11d056815250815260200160405180604001604052807f12d057bd105b03ecfa5af22819f25a66651f3d6a76f794dd9099daffbd388fb481526020017f06b2cfc7f5728ba01f98c98395c5050b9d12d76059bef63146069a1d01aeab0f8152508152508160200181905250604051806040016040528060405180604001604052807f28e12e015cb23eee5956c3075f7c01d382f8c27266e417f1903764dc056ef16381526020017f1edbf0f593e0bd6bd8c121cf26782b7ce1d3069e9d7b214926d54430b7229fcb815250815260200160405180604001604052807e22c1f45cd308210ff881e045c4d7938382aa2e3af2fc341ded856c5a4c50b681526020017f11e919dd55943e82816eb75ad2959633275cdb85506d63b5ad2581ea059929998152508152508160400181905250604051806040016040528060405180604001604052807f1e20b73985a33bd83cdd55a6c51634493e76be1faa9d70bcaaf6c13cb11e4d6781526020017f2cc1c3a5f78d269b052aacd68e950e8d7c08166e403f356b0d7b2fd98c8411fd815250815260200160405180604001604052807f030b9afd00f7a2ab58a3af3de20fecc721ae3ff004e8e0f26e64a0f1d253219081526020017f0d6c650f6f428dd612243d3f6cae3ae488e459480580a051b58ad0675bfbdaab815250815250816060018190525060036040519080825280602002602001820160405280156131e557816020015b6131d2613e68565b8152602001906001900390816131ca5790505b50816080018190525060405180604001604052807f04824d51fd942425eb07dea90291754cad5bb3c7eb77bb6dd6944877b619afba81526020017f2498dca6359ad2d544b4d4f2880cf043744088b5ec276a42ae046f9b06029284815250816080015160008151811061325457fe5b602002602001018190525060405180604001604052807f1918cfb0fbc27e4a4827e462993d2be2cfd0d7170bb11029fe7f67452a88ee4481526020017f112662dfc579745d77571f75632331ab97f7e8beb30a88f5524ac9d92b228f2b81525081608001516001815181106132c557fe5b602002602001018190525060405180604001604052807f1416c13d8232c3b8211fd2fc095799a79e230aa884868e7dd65173d69fa6d72b81526020017f05b910a5baf74b6ad42609bc1d559dc891d440ce2d00e91a920dea6fccb47bbf815250816080015160028151811061333657fe5b602002602001018190525090565b61334c613e22565b613354613e82565b83600001518160006003811061336657fe5b60200201818152505083602001518160016003811061338157fe5b602002018181525050828160026003811061339857fe5b602002018181525050600060608360808460076107d05a03fa905080600081146133c1576133c3565bfe5b50806133ce57600080fd5b505092915050565b6133de613e22565b6133e6613ea4565b8360000151816000600481106133f857fe5b60200201818152505083602001518160016004811061341357fe5b60200201818152505082600001518160026004811061342e57fe5b60200201818152505082602001518160036004811061344957fe5b602002018181525050600060608360c08460066107d05a03fa9050806000811461347257613474565bfe5b508061347f57600080fd5b505092915050565b61348f613e22565b60007f30644e72e131a029b85045b68181585d97816a916871ca8d3c208c16d87cfd479050600083600001511480156134cc575060008360200151145b156134f057604051806040016040528060008152602001600081525091505061351c565b6040518060400160405280846000015181526020018285602001518161351257fe5b0683038152509150505b919050565b60006060600460405190808252806020026020018201604052801561356057816020015b61354d613e68565b8152602001906001900390816135455790505b509050606060046040519080825280602002602001820160405280156135a057816020015b61358d613ec6565b8152602001906001900390816135855790505b5090508a826000815181106135b157fe5b602002602001018190525088826001815181106135ca57fe5b602002602001018190525086826002815181106135e357fe5b602002602001018190525084826003815181106135fc57fe5b6020026020010181905250898160008151811061361557fe5b6020026020010181905250878160018151811061362e57fe5b6020026020010181905250858160028151811061364757fe5b6020026020010181905250838160038151811061366057fe5b60200260200101819052506136758282613a15565b9250505098975050505050505050565b60008060007fc5d2460186f7233c927e7db2dcc703c0e500b653ca82273b7bfad8045d85a47060001b9050833f91508082141580156136c757506000801b8214155b92505050919050565b6136e86001826000015461370990919063ffffffff16565b816000018190555050565b6001816000016000828254019250508190555050565b600061374b83836040518060400160405280601e81526020017f536166654d6174683a207375627472616374696f6e206f766572666c6f770000815250613c68565b905092915050565b6060808690506060869050606086905060608690506060869050606081518351855187518951010101016040519080825280601f01601f1916602001820160405280156137af5781602001600182028038833980820191505090505b509050606081905060008090506000809050600090505b8851811015613834578881815181106137db57fe5b602001015160f81c60f81b8383806001019450815181106137f857fe5b60200101907effffffffffffffffffffffffffffffffffffffffffffffffffffffffffffff1916908160001a90535080806001019150506137c6565b600090505b87518110156138a75787818151811061384e57fe5b602001015160f81c60f81b83838060010194508151811061386b57fe5b60200101907effffffffffffffffffffffffffffffffffffffffffffffffffffffffffffff1916908160001a9053508080600101915050613839565b600090505b865181101561391a578681815181106138c157fe5b602001015160f81c60f81b8383806001019450815181106138de57fe5b60200101907effffffffffffffffffffffffffffffffffffffffffffffffffffffffffffff1916908160001a90535080806001019150506138ac565b600090505b855181101561398d5785818151811061393457fe5b602001015160f81c60f81b83838060010194508151811061395157fe5b60200101907effffffffffffffffffffffffffffffffffffffffffffffffffffffffffffff1916908160001a905350808060010191505061391f565b600090505b8451811015613a00578481815181106139a757fe5b602001015160f81c60f81b8383806001019450815181106139c457fe5b60200101907effffffffffffffffffffffffffffffffffffffffffffffffffffffffffffff1916908160001a9053508080600101915050613992565b82995050505050505050505095945050505050565b60008151835114613a2557600080fd5b6000835190506000600682029050606081604051908082528060200260200182016040528015613a645781602001602082028038833980820191505090505b50905060008090505b83811015613c0a57868181518110613a8157fe5b602002602001015160000151826000600684020181518110613a9f57fe5b602002602001018181525050868181518110613ab757fe5b602002602001015160200151826001600684020181518110613ad557fe5b602002602001018181525050858181518110613aed57fe5b602002602001015160000151600160028110613b0557fe5b6020020151826002600684020181518110613b1c57fe5b602002602001018181525050858181518110613b3457fe5b602002602001015160000151600060028110613b4c57fe5b6020020151826003600684020181518110613b6357fe5b602002602001018181525050858181518110613b7b57fe5b602002602001015160200151600160028110613b9357fe5b6020020151826004600684020181518110613baa57fe5b602002602001018181525050858181518110613bc257fe5b602002602001015160200151600060028110613bda57fe5b6020020151826005600684020181518110613bf157fe5b6020026020010181815250508080600101915050613a6d565b50613c13613eec565b6000602082602086026020860160086107d05a03fa90508060008114613c3857613c3a565bfe5b5080613c4557600080fd5b600082600060018110613c5457fe5b602002015114159550505050505092915050565b6000838311158290613d15576040517f08c379a00000000000000000000000000000000000000000000000000000000081526004018080602001828103825283818151815260200191508051906020019080838360005b83811015613cda578082015181840152602081019050613cbf565b50505050905090810190601f168015613d075780820380516001836020036101000a031916815260200191505b509250505060405180910390fd5b5060008385039050809150509392505050565b6040518060600160405280613d3b613e68565b8152602001613d48613ec6565b8152602001613d55613e68565b81525090565b828054600181600116156101000203166002900490600052602060002090601f016020900481019282601f10613d9c57805160ff1916838001178555613dca565b82800160010185558215613dca579182015b82811115613dc9578251825591602001919060010190613dae565b5b509050613dd79190613f0e565b5090565b6040518060a00160405280613dee613e68565b8152602001613dfb613ec6565b8152602001613e08613ec6565b8152602001613e15613ec6565b8152602001606081525090565b604051806040016040528060008152602001600081525090565b815481835581811115613e6357818360005260206000209182019101613e629190613f0e565b5b505050565b604051806040016040528060008152602001600081525090565b6040518060600160405280600390602082028038833980820191505090505090565b6040518060800160405280600490602082028038833980820191505090505090565b6040518060400160405280613ed9613f33565b8152602001613ee6613f33565b81525090565b6040518060200160405280600190602082028038833980820191505090505090565b613f3091905b80821115613f2c576000816000905550600101613f14565b5090565b90565b604051806040016040528060029060208202803883398082019150509050509056fe54686520616464726573732070726f7669646564206973206e6f7420746865206f776e6572206f662074686520746f6b656e5468697320617070726f76616c206f7065726174696f6e206973206e6f7420616c6c6f7765645468697320746f6b656e2068617320616c7265616479206265656e206d696e74656454686973206164647265737320616c7265616479206f776e732074686520746f6b656e546869732066756e6374696f6e2063616e206265206f6e6c792063616c6c656420627920746865206f776e6572206f662074686520636f6e74726163745468697320736f6c7574696f6e2068617320616c7265616479206265656e2075736564a265627a7a723158203d46ec87b989fe836b9bd3da895f9fe426a0d4dbb65709b26f77d0e8c15df49964736f6c6343000510003268747470733a2f2f73332d75732d776573742d322e616d617a6f6e6177732e636f6d2f756461636974792d626c6f636b636861696e2f63617073746f6e652f",
  "source": "pragma solidity ^0.5.0;\n\n// define a contract call to the zokrates generated solidity contract <Verifier> or <renamedVerifier>\nimport \"./ERC721Mintable.sol\";\nimport \"./verifier.sol\";\n\n// define another contract named SolnSquareVerifier that inherits from your ERC721Mintable class\ncontract SolnSquareVerifier is TheCoolestToken, Verifier {\n    // define a solutions struct that can hold an index & an address\n    struct Solution{\n        bytes32 index;\n        address solAddres;\n        bool exists;\n    }\n\n    // define a mapping of the above struct\n    mapping(bytes32 => Solution) solutionList;\n\n    // define a mapping to store unique solutions submitted\n    mapping(uint256 => bytes32) indexList;\n\n    // Create an event to emit when a solution is added\n    event newSolution(bytes32 index, address solAddress, uint256 tokenId);\n\n    // Create a function to add the solutions to the array and emit the event\n    function addSol(address solAddress, uint256 tokenId, uint[2] memory a, uint[2][2] memory b, uint[2] memory c, uint[2] memory input) public {\n        bytes32 index = keccak256(abi.encodePacked(a,b,c,input));\n        require(!solutionList[index].exists,\"This solution already exists\");\n        bool solValid = verifyTx(a,b,c,input);\n        require(solValid, \"Proof is not valid\");\n        solutionList[index] = Solution(index,solAddress,true);\n        indexList[tokenId] = index;\n        emit newSolution(index,solAddress,tokenId);        \n    }\n\n    \n    // Create a function to mint new NFT only after the solution has been verified\n    //  - make sure the solution is unique (has not been used before)\n    //  - make sure you handle metadata as well as tokenSuplly\n    function solMint(address to, uint256 tokenId) public {\n        require(solutionList[indexList[tokenId]].exists, \"This solution has already been used\");\n        mint(to, tokenId);\n    }\n\n}\n\n\n  \n\n\n\n\n\n\n\n\n\n\n\n\n\n\n\n\n\n\n\n\n\n\n\n\n\n\n",
  "sourcePath": "/mnt/c/Users/Alejandro/Documents/Programacion/Blockchain/Blockchain-Capstone/eth-contracts/contracts/SolnSquareVerifier.sol",
  "compiler": {
    "name": "solc",
    "version": "0.5.16+commit.9c3226ce.Emscripten.clang"
  },
  "schemaVersion": "3.4.3",
  "updatedAt": "2021-11-06T22:35:18.228Z",
  "networkType": "ethereum",
  "devdoc": {
    "methods": {
      "isApprovedForAll(address,address)": {
        "details": "Tells whether an operator is approved by a given owner",
        "params": {
          "operator": "operator address which you want to query the approval of",
          "owner": "owner address which you want to query the approval of"
        },
        "return": "bool whether the given operator is approved by the given owner"
      },
      "setApprovalForAll(address,bool)": {
        "details": "Sets or unsets the approval of a given operator An operator is allowed to transfer all tokens of the sender on their behalf",
        "params": {
          "approved": "representing the status of the approval to be set",
          "to": "operator address to set the approval"
        }
      },
      "supportsInterface(bytes4)": {
        "details": "implement supportsInterface(bytes4) using a lookup table"
      },
      "tokenByIndex(uint256)": {
        "details": "Gets the token ID at a given index of all the tokens in this contract Reverts if the index is greater or equal to the total number of tokens",
        "params": {
          "index": "uint256 representing the index to be accessed of the tokens list"
        },
        "return": "uint256 token ID at the given index of the tokens list"
      },
      "tokenOfOwnerByIndex(address,uint256)": {
        "details": "Gets the token ID at a given index of the tokens list of the requested owner",
        "params": {
          "index": "uint256 representing the index to be accessed of the requested tokens list",
          "owner": "address owning the tokens list to be accessed"
        },
        "return": "uint256 token ID at the given index of the tokens list owned by the requested address"
      },
      "totalSupply()": {
        "details": "Gets the total amount of tokens stored by the contract",
        "return": "uint256 representing the total amount of tokens"
      }
    }
  },
  "userdoc": {
    "methods": {}
  }
}